{
    "address": "0xa7bD120f87f12BEf290c3580Fe6EFa6467b93dfC",
    "abi": [
        {
            "inputs": [
                {
                    "internalType": "address",
                    "name": "priceFeedAddress",
                    "type": "address"
                }
            ],
            "stateMutability": "nonpayable",
            "type": "constructor"
        },
        {
            "stateMutability": "payable",
            "type": "fallback"
        },
        {
            "inputs": [],
            "name": "MINIMUM_USD",
            "outputs": [
                {
                    "internalType": "uint256",
                    "name": "",
                    "type": "uint256"
                }
            ],
            "stateMutability": "view",
            "type": "function"
        },
        {
            "inputs": [
                {
                    "internalType": "address",
                    "name": "",
                    "type": "address"
                }
            ],
            "name": "addressToAmountFunded",
            "outputs": [
                {
                    "internalType": "uint256",
                    "name": "",
                    "type": "uint256"
                }
            ],
            "stateMutability": "view",
            "type": "function"
        },
        {
            "inputs": [],
            "name": "fund",
            "outputs": [],
            "stateMutability": "payable",
            "type": "function"
        },
        {
            "inputs": [
                {
                    "internalType": "uint256",
                    "name": "",
                    "type": "uint256"
                }
            ],
            "name": "funders",
            "outputs": [
                {
                    "internalType": "address",
                    "name": "",
                    "type": "address"
                }
            ],
            "stateMutability": "view",
            "type": "function"
        },
        {
            "inputs": [],
            "name": "i_owner",
            "outputs": [
                {
                    "internalType": "address",
                    "name": "",
                    "type": "address"
                }
            ],
            "stateMutability": "view",
            "type": "function"
        },
        {
            "inputs": [],
            "name": "priceFeed",
            "outputs": [
                {
                    "internalType": "contract AggregatorV3Interface",
                    "name": "",
                    "type": "address"
                }
            ],
            "stateMutability": "view",
            "type": "function"
        },
        {
            "inputs": [],
            "name": "withdraw",
            "outputs": [],
            "stateMutability": "nonpayable",
            "type": "function"
        },
        {
            "stateMutability": "payable",
            "type": "receive"
        }
    ],
    "transactionHash": "0x74e9d235c29b5698ea3b38cf67af1da1527a246ebfd7463032704abe11b1b1e4",
    "args": [
        "0xD4a33860578De61DBAbDc8BFdb98FD742fA7028e"
    ],
    "numDeployments": 1,
    "solcInputHash": "8a5d0747ad651e4030e553b8aa3cd461",
    "bytecode": "0x60a060405234801561001057600080fd5b506040516200105d3803806200105d83398181016040528101906100349190610115565b3373ffffffffffffffffffffffffffffffffffffffff1660808173ffffffffffffffffffffffffffffffffffffffff1660601b8152505080600260006101000a81548173ffffffffffffffffffffffffffffffffffffffff021916908373ffffffffffffffffffffffffffffffffffffffff16021790555050610142565b600080fd5b600073ffffffffffffffffffffffffffffffffffffffff82169050919050565b60006100e2826100b7565b9050919050565b6100f2816100d7565b81146100fd57600080fd5b50565b60008151905061010f816100e9565b92915050565b60006020828403121561012b5761012a6100b2565b5b600061013984828501610100565b91505092915050565b60805160601c610ef562000168600039600081816102e6015261057a0152610ef56000f3fe6080604052600436106100745760003560e01c8063741bef1a1161004e578063741bef1a1461010c578063b60d428814610137578063dba6335f14610141578063dc0d3dff1461016c57610083565b80633ccfd60b1461008d5780633e47d6f3146100a45780636b69a592146100e157610083565b36610083576100816101a9565b005b61008b6101a9565b005b34801561009957600080fd5b506100a26102e4565b005b3480156100b057600080fd5b506100cb60048036038101906100c691906107c1565b61052d565b6040516100d89190610807565b60405180910390f35b3480156100ed57600080fd5b506100f6610545565b6040516101039190610807565b60405180910390f35b34801561011857600080fd5b50610121610552565b60405161012e9190610881565b60405180910390f35b61013f6101a9565b005b34801561014d57600080fd5b50610156610578565b60405161016391906108ab565b60405180910390f35b34801561017857600080fd5b50610193600480360381019061018e91906108f2565b61059c565b6040516101a091906108ab565b60405180910390f35b6802b5e3af16b18800006101e8600260009054906101000a900473ffffffffffffffffffffffffffffffffffffffff16346105db90919063ffffffff16565b1015610229576040517f08c379a00000000000000000000000000000000000000000000000000000000081526004016102209061097c565b60405180910390fd5b6000339080600181540180825580915050600190039060005260206000200160009091909190916101000a81548173ffffffffffffffffffffffffffffffffffffffff021916908373ffffffffffffffffffffffffffffffffffffffff16021790555034600160003373ffffffffffffffffffffffffffffffffffffffff1673ffffffffffffffffffffffffffffffffffffffff16815260200190815260200160002060008282546102db91906109cb565b92505081905550565b7f000000000000000000000000000000000000000000000000000000000000000073ffffffffffffffffffffffffffffffffffffffff163373ffffffffffffffffffffffffffffffffffffffff1614610372576040517f08c379a000000000000000000000000000000000000000000000000000000000815260040161036990610a6d565b60405180910390fd5b60005b60008054905081101561041d57600080828154811061039757610396610a8d565b5b9060005260206000200160009054906101000a900473ffffffffffffffffffffffffffffffffffffffff1690506000600160008373ffffffffffffffffffffffffffffffffffffffff1673ffffffffffffffffffffffffffffffffffffffff1681526020019081526020016000208190555050808061041590610abc565b915050610375565b50600067ffffffffffffffff81111561043957610438610b05565b5b6040519080825280602002602001820160405280156104675781602001602082028036833780820191505090505b506000908051906020019061047d9291906106b7565b5060003373ffffffffffffffffffffffffffffffffffffffff16476040516104a490610b65565b60006040518083038185875af1925050503d80600081146104e1576040519150601f19603f3d011682016040523d82523d6000602084013e6104e6565b606091505b505090508061052a576040517f08c379a000000000000000000000000000000000000000000000000000000000815260040161052190610bc6565b60405180910390fd5b50565b60016020528060005260406000206000915090505481565b6802b5e3af16b188000081565b600260009054906101000a900473ffffffffffffffffffffffffffffffffffffffff1681565b7f000000000000000000000000000000000000000000000000000000000000000081565b600081815481106105ac57600080fd5b906000526020600020016000915054906101000a900473ffffffffffffffffffffffffffffffffffffffff1681565b6000806105e783610617565b90506000670de0b6b3a764000085836106009190610be6565b61060a9190610c6f565b9050809250505092915050565b6000808273ffffffffffffffffffffffffffffffffffffffff1663feaf968c6040518163ffffffff1660e01b815260040160a06040518083038186803b15801561066057600080fd5b505afa158015610674573d6000803e3d6000fd5b505050506040513d601f19601f820116820180604052508101906106989190610d2d565b5050509150506402540be400816106af9190610da8565b915050919050565b828054828255906000526020600020908101928215610730579160200282015b8281111561072f5782518260006101000a81548173ffffffffffffffffffffffffffffffffffffffff021916908373ffffffffffffffffffffffffffffffffffffffff160217905550916020019190600101906106d7565b5b50905061073d9190610741565b5090565b5b8082111561075a576000816000905550600101610742565b5090565b600080fd5b600073ffffffffffffffffffffffffffffffffffffffff82169050919050565b600061078e82610763565b9050919050565b61079e81610783565b81146107a957600080fd5b50565b6000813590506107bb81610795565b92915050565b6000602082840312156107d7576107d661075e565b5b60006107e5848285016107ac565b91505092915050565b6000819050919050565b610801816107ee565b82525050565b600060208201905061081c60008301846107f8565b92915050565b6000819050919050565b600061084761084261083d84610763565b610822565b610763565b9050919050565b60006108598261082c565b9050919050565b600061086b8261084e565b9050919050565b61087b81610860565b82525050565b60006020820190506108966000830184610872565b92915050565b6108a581610783565b82525050565b60006020820190506108c0600083018461089c565b92915050565b6108cf816107ee565b81146108da57600080fd5b50565b6000813590506108ec816108c6565b92915050565b6000602082840312156109085761090761075e565b5b6000610916848285016108dd565b91505092915050565b600082825260208201905092915050565b7f4469646e27742073656e6420656e6f7567682065746865722100000000000000600082015250565b600061096660198361091f565b915061097182610930565b602082019050919050565b6000602082019050818103600083015261099581610959565b9050919050565b7f4e487b7100000000000000000000000000000000000000000000000000000000600052601160045260246000fd5b60006109d6826107ee565b91506109e1836107ee565b9250827fffffffffffffffffffffffffffffffffffffffffffffffffffffffffffffffff03821115610a1657610a1561099c565b5b828201905092915050565b7f53656e646572206973206e6f74206f776e657221000000000000000000000000600082015250565b6000610a5760148361091f565b9150610a6282610a21565b602082019050919050565b60006020820190508181036000830152610a8681610a4a565b9050919050565b7f4e487b7100000000000000000000000000000000000000000000000000000000600052603260045260246000fd5b6000610ac7826107ee565b91507fffffffffffffffffffffffffffffffffffffffffffffffffffffffffffffffff821415610afa57610af961099c565b5b600182019050919050565b7f4e487b7100000000000000000000000000000000000000000000000000000000600052604160045260246000fd5b600081905092915050565b50565b6000610b4f600083610b34565b9150610b5a82610b3f565b600082019050919050565b6000610b7082610b42565b9150819050919050565b7f43616c6c206661696c6564000000000000000000000000000000000000000000600082015250565b6000610bb0600b8361091f565b9150610bbb82610b7a565b602082019050919050565b60006020820190508181036000830152610bdf81610ba3565b9050919050565b6000610bf1826107ee565b9150610bfc836107ee565b9250817fffffffffffffffffffffffffffffffffffffffffffffffffffffffffffffffff0483118215151615610c3557610c3461099c565b5b828202905092915050565b7f4e487b7100000000000000000000000000000000000000000000000000000000600052601260045260246000fd5b6000610c7a826107ee565b9150610c85836107ee565b925082610c9557610c94610c40565b5b828204905092915050565b600069ffffffffffffffffffff82169050919050565b610cbf81610ca0565b8114610cca57600080fd5b50565b600081519050610cdc81610cb6565b92915050565b6000819050919050565b610cf581610ce2565b8114610d0057600080fd5b50565b600081519050610d1281610cec565b92915050565b600081519050610d27816108c6565b92915050565b600080600080600060a08688031215610d4957610d4861075e565b5b6000610d5788828901610ccd565b9550506020610d6888828901610d03565b9450506040610d7988828901610d18565b9350506060610d8a88828901610d18565b9250506080610d9b88828901610ccd565b9150509295509295909350565b6000610db382610ce2565b9150610dbe83610ce2565b9250827f7fffffffffffffffffffffffffffffffffffffffffffffffffffffffffffffff0482116000841360008413161615610dfd57610dfc61099c565b5b817f80000000000000000000000000000000000000000000000000000000000000000583126000841260008413161615610e3a57610e3961099c565b5b827f80000000000000000000000000000000000000000000000000000000000000000582126000841360008412161615610e7757610e7661099c565b5b827f7fffffffffffffffffffffffffffffffffffffffffffffffffffffffffffffff0582126000841260008412161615610eb457610eb361099c565b5b82820290509291505056fea264697066735822122048fffb808e25f33a6777151b861323c63fb43fe27b622b899ba52a48d641487264736f6c63430008080033",
    "devdoc": {
        "kind": "dev",
        "methods": {},
        "version": 1
    },
    "userdoc": {
        "kind": "user",
        "methods": {},
        "version": 1
    },
    "storageLayout": {
        "storage": [
            {
                "astId": 62,
                "contract": "contracts/FundMe.sol:FundMe",
                "label": "funders",
                "offset": 0,
                "slot": "0",
                "type": "t_array(t_address)dyn_storage"
            },
            {
                "astId": 66,
                "contract": "contracts/FundMe.sol:FundMe",
                "label": "addressToAmountFunded",
                "offset": 0,
                "slot": "1",
                "type": "t_mapping(t_address,t_uint256)"
            },
            {
                "astId": 71,
                "contract": "contracts/FundMe.sol:FundMe",
                "label": "priceFeed",
                "offset": 0,
                "slot": "2",
                "type": "t_contract(AggregatorV3Interface)45"
            }
        ],
        "types": {
            "t_address": {
                "encoding": "inplace",
                "label": "address",
                "numberOfBytes": "20"
            },
            "t_array(t_address)dyn_storage": {
                "base": "t_address",
                "encoding": "dynamic_array",
                "label": "address[]",
                "numberOfBytes": "32"
            },
            "t_contract(AggregatorV3Interface)45": {
                "encoding": "inplace",
                "label": "contract AggregatorV3Interface",
                "numberOfBytes": "20"
            },
            "t_mapping(t_address,t_uint256)": {
                "encoding": "mapping",
                "key": "t_address",
                "label": "mapping(address => uint256)",
                "numberOfBytes": "32",
                "value": "t_uint256"
            },
            "t_uint256": {
                "encoding": "inplace",
                "label": "uint256",
                "numberOfBytes": "32"
            }
        }
    }
}